{
  "contractName": "SimpleStorage",
  "abi": [
    {
      "anonymous": false,
      "inputs": [
        {
          "indexed": false,
          "internalType": "enum SimpleStorage.StorageData",
          "name": "_data",
          "type": "uint8"
        },
        {
          "indexed": false,
          "internalType": "address",
          "name": "_addr",
          "type": "address"
        }
      ],
      "name": "dataStored",
      "type": "event"
    },
    {
      "inputs": [],
      "name": "storageData",
      "outputs": [
        {
          "internalType": "enum SimpleStorage.StorageData",
          "name": "",
          "type": "uint8"
        }
      ],
      "stateMutability": "view",
      "type": "function",
      "constant": true
    },
    {
      "inputs": [],
      "name": "get",
      "outputs": [
        {
          "internalType": "enum SimpleStorage.StorageData",
          "name": "",
          "type": "uint8"
        }
      ],
      "stateMutability": "view",
      "type": "function",
      "constant": true
    },
    {
      "inputs": [
        {
          "internalType": "enum SimpleStorage.StorageData",
          "name": "_storageData",
          "type": "uint8"
        }
      ],
      "name": "set",
      "outputs": [],
      "stateMutability": "nonpayable",
      "type": "function"
    }
  ],
  "bytecode": "0x608060405234801561001057600080fd5b506103bd806100206000396000f3fe608060405234801561001057600080fd5b50600436106100415760003560e01c806324b8ba5f14610046578063586fcfeb146100625780636d4ce63c14610080575b600080fd5b610060600480360381019061005b91906101bb565b61009e565b005b61006a61016a565b604051610077919061025f565b60405180910390f35b61008861017b565b604051610095919061025f565b60405180910390f35b600060028111156100b2576100b16101e8565b5b8160028111156100c5576100c46101e8565b5b03610105576040517f08c379a00000000000000000000000000000000000000000000000000000000081526004016100fc906102fd565b60405180910390fd5b806000806101000a81548160ff02191690836002811115610129576101286101e8565b5b02179055507f867de884a1ecbcc212392cb65eaa42b7313c7dc277da44498ebf9da5591f777d813360405161015f92919061035e565b60405180910390a150565b60008054906101000a900460ff1681565b60008060009054906101000a900460ff16905090565b600080fd5b600381106101a357600080fd5b50565b6000813590506101b581610196565b92915050565b6000602082840312156101d1576101d0610191565b5b60006101df848285016101a6565b91505092915050565b7f4e487b7100000000000000000000000000000000000000000000000000000000600052602160045260246000fd5b60038110610228576102276101e8565b5b50565b600081905061023982610217565b919050565b60006102498261022b565b9050919050565b6102598161023e565b82525050565b60006020820190506102746000830184610250565b92915050565b600082825260208201905092915050565b7f766f7573206e6520706f7576657a20706173206d6574747265206c612070726560008201527f6d696572652076616c6575722100000000000000000000000000000000000000602082015250565b60006102e7602d8361027a565b91506102f28261028b565b604082019050919050565b60006020820190508181036000830152610316816102da565b9050919050565b600073ffffffffffffffffffffffffffffffffffffffff82169050919050565b60006103488261031d565b9050919050565b6103588161033d565b82525050565b60006040820190506103736000830185610250565b610380602083018461034f565b939250505056fea26469706673582212207ce845695bb69c8b71072189a71c46b065caa8e75b6ef8aa46585dffc22a707b64736f6c63430008110033",
  "immutableReferences": {},
  "source": "// SPDX-License-Identifier: GPL-3.0\n\npragma solidity 0.8.17;\n\ncontract SimpleStorage {\n    enum StorageData {\n        VALUE1,\n        VALUE2,\n        VALUE3\n    }\n    StorageData public storageData;\n\n    event dataStored(StorageData _data, address _addr);\n\n    function get() public view returns (StorageData) {\n        return storageData;\n    }\n\n    function set(StorageData _storageData) public {\n        require(\n            _storageData != StorageData.VALUE1,\n            \"vous ne pouvez pas mettre la premiere valeur!\"\n        );\n        storageData = _storageData;\n        emit dataStored(_storageData, msg.sender);\n    }\n}\n",
  "sourcePath": "/Users/jilanmenzer/Documents/Dev/Perso/Solidity/Test/TestERC20/contracts/SimpleStorage.sol",
  "compiler": {
    "name": "solc",
    "version": "0.8.17+commit.8df45f5f.Emscripten.clang"
  },
  "schemaVersion": "3.4.10",
  "updatedAt": "2022-10-26T16:37:47.118Z",
  "networkType": "ethereum",
  "devdoc": {
    "kind": "dev",
    "methods": {},
    "version": 1
  },
  "userdoc": {
    "kind": "user",
    "methods": {},
    "version": 1
  }
}